{
  "_format": "hh-sol-artifact-1",
  "contractName": "MyEpicNFT",
  "sourceName": "contracts/MyEpicNFT.sol",
  "abi": [
    {
      "inputs": [],
      "stateMutability": "nonpayable",
      "type": "constructor"
    },
    {
      "anonymous": false,
      "inputs": [
        {
          "indexed": true,
          "internalType": "address",
          "name": "owner",
          "type": "address"
        },
        {
          "indexed": true,
          "internalType": "address",
          "name": "approved",
          "type": "address"
        },
        {
          "indexed": true,
          "internalType": "uint256",
          "name": "tokenId",
          "type": "uint256"
        }
      ],
      "name": "Approval",
      "type": "event"
    },
    {
      "anonymous": false,
      "inputs": [
        {
          "indexed": true,
          "internalType": "address",
          "name": "owner",
          "type": "address"
        },
        {
          "indexed": true,
          "internalType": "address",
          "name": "operator",
          "type": "address"
        },
        {
          "indexed": false,
          "internalType": "bool",
          "name": "approved",
          "type": "bool"
        }
      ],
      "name": "ApprovalForAll",
      "type": "event"
    },
    {
      "anonymous": false,
      "inputs": [
        {
          "indexed": false,
          "internalType": "address",
          "name": "sender",
          "type": "address"
        },
        {
          "indexed": false,
          "internalType": "uint256",
          "name": "tokenId",
          "type": "uint256"
        }
      ],
      "name": "NewEpicNFTMinted",
      "type": "event"
    },
    {
      "anonymous": false,
      "inputs": [
        {
          "indexed": true,
          "internalType": "address",
          "name": "from",
          "type": "address"
        },
        {
          "indexed": true,
          "internalType": "address",
          "name": "to",
          "type": "address"
        },
        {
          "indexed": true,
          "internalType": "uint256",
          "name": "tokenId",
          "type": "uint256"
        }
      ],
      "name": "Transfer",
      "type": "event"
    },
    {
      "inputs": [],
      "name": "MAX_SUPPLY",
      "outputs": [
        {
          "internalType": "uint256",
          "name": "",
          "type": "uint256"
        }
      ],
      "stateMutability": "view",
      "type": "function"
    },
    {
      "inputs": [
        {
          "internalType": "address",
          "name": "to",
          "type": "address"
        },
        {
          "internalType": "uint256",
          "name": "tokenId",
          "type": "uint256"
        }
      ],
      "name": "approve",
      "outputs": [],
      "stateMutability": "nonpayable",
      "type": "function"
    },
    {
      "inputs": [
        {
          "internalType": "address",
          "name": "owner",
          "type": "address"
        }
      ],
      "name": "balanceOf",
      "outputs": [
        {
          "internalType": "uint256",
          "name": "",
          "type": "uint256"
        }
      ],
      "stateMutability": "view",
      "type": "function"
    },
    {
      "inputs": [],
      "name": "cap",
      "outputs": [
        {
          "internalType": "uint256",
          "name": "",
          "type": "uint256"
        }
      ],
      "stateMutability": "view",
      "type": "function"
    },
    {
      "inputs": [
        {
          "internalType": "uint256",
          "name": "tokenId",
          "type": "uint256"
        }
      ],
      "name": "getApproved",
      "outputs": [
        {
          "internalType": "address",
          "name": "",
          "type": "address"
        }
      ],
      "stateMutability": "view",
      "type": "function"
    },
    {
      "inputs": [
        {
          "internalType": "address",
          "name": "owner",
          "type": "address"
        },
        {
          "internalType": "address",
          "name": "operator",
          "type": "address"
        }
      ],
      "name": "isApprovedForAll",
      "outputs": [
        {
          "internalType": "bool",
          "name": "",
          "type": "bool"
        }
      ],
      "stateMutability": "view",
      "type": "function"
    },
    {
      "inputs": [],
      "name": "makeAnEpicNFT",
      "outputs": [],
      "stateMutability": "nonpayable",
      "type": "function"
    },
    {
      "inputs": [],
      "name": "name",
      "outputs": [
        {
          "internalType": "string",
          "name": "",
          "type": "string"
        }
      ],
      "stateMutability": "view",
      "type": "function"
    },
    {
      "inputs": [
        {
          "internalType": "uint256",
          "name": "tokenId",
          "type": "uint256"
        }
      ],
      "name": "ownerOf",
      "outputs": [
        {
          "internalType": "address",
          "name": "",
          "type": "address"
        }
      ],
      "stateMutability": "view",
      "type": "function"
    },
    {
      "inputs": [
        {
          "internalType": "uint256",
          "name": "tokenId",
          "type": "uint256"
        }
      ],
      "name": "pickRandomFirstWord",
      "outputs": [
        {
          "internalType": "string",
          "name": "",
          "type": "string"
        }
      ],
      "stateMutability": "view",
      "type": "function"
    },
    {
      "inputs": [
        {
          "internalType": "uint256",
          "name": "tokenId",
          "type": "uint256"
        }
      ],
      "name": "pickRandomSecondWord",
      "outputs": [
        {
          "internalType": "string",
          "name": "",
          "type": "string"
        }
      ],
      "stateMutability": "view",
      "type": "function"
    },
    {
      "inputs": [
        {
          "internalType": "uint256",
          "name": "tokenId",
          "type": "uint256"
        }
      ],
      "name": "pickRandomThirdWord",
      "outputs": [
        {
          "internalType": "string",
          "name": "",
          "type": "string"
        }
      ],
      "stateMutability": "view",
      "type": "function"
    },
    {
      "inputs": [
        {
          "internalType": "address",
          "name": "from",
          "type": "address"
        },
        {
          "internalType": "address",
          "name": "to",
          "type": "address"
        },
        {
          "internalType": "uint256",
          "name": "tokenId",
          "type": "uint256"
        }
      ],
      "name": "safeTransferFrom",
      "outputs": [],
      "stateMutability": "nonpayable",
      "type": "function"
    },
    {
      "inputs": [
        {
          "internalType": "address",
          "name": "from",
          "type": "address"
        },
        {
          "internalType": "address",
          "name": "to",
          "type": "address"
        },
        {
          "internalType": "uint256",
          "name": "tokenId",
          "type": "uint256"
        },
        {
          "internalType": "bytes",
          "name": "data",
          "type": "bytes"
        }
      ],
      "name": "safeTransferFrom",
      "outputs": [],
      "stateMutability": "nonpayable",
      "type": "function"
    },
    {
      "inputs": [
        {
          "internalType": "address",
          "name": "operator",
          "type": "address"
        },
        {
          "internalType": "bool",
          "name": "approved",
          "type": "bool"
        }
      ],
      "name": "setApprovalForAll",
      "outputs": [],
      "stateMutability": "nonpayable",
      "type": "function"
    },
    {
      "inputs": [
        {
          "internalType": "bytes4",
          "name": "interfaceId",
          "type": "bytes4"
        }
      ],
      "name": "supportsInterface",
      "outputs": [
        {
          "internalType": "bool",
          "name": "",
          "type": "bool"
        }
      ],
      "stateMutability": "view",
      "type": "function"
    },
    {
      "inputs": [],
      "name": "symbol",
      "outputs": [
        {
          "internalType": "string",
          "name": "",
          "type": "string"
        }
      ],
      "stateMutability": "view",
      "type": "function"
    },
    {
      "inputs": [
        {
          "internalType": "uint256",
          "name": "tokenId",
          "type": "uint256"
        }
      ],
      "name": "tokenURI",
      "outputs": [
        {
          "internalType": "string",
          "name": "",
          "type": "string"
        }
      ],
      "stateMutability": "view",
      "type": "function"
    },
    {
      "inputs": [],
      "name": "totalSupply",
      "outputs": [
        {
          "internalType": "uint256",
          "name": "",
          "type": "uint256"
        }
      ],
      "stateMutability": "view",
      "type": "function"
    },
    {
      "inputs": [
        {
          "internalType": "address",
          "name": "from",
          "type": "address"
        },
        {
          "internalType": "address",
          "name": "to",
          "type": "address"
        },
        {
          "internalType": "uint256",
          "name": "tokenId",
          "type": "uint256"
        }
      ],
      "name": "transferFrom",
      "outputs": [],
      "stateMutability": "nonpayable",
      "type": "function"
    }
  ],
  "bytecode": "0x608060405260405180610160016040528061012f81526020016200474561012f913960089081620000319190620009d0565b506040518060c001604052806040518060400160405280600381526020017f414141000000000000000000000000000000000000000000000000000000000081525081526020016040518060400160405280600381526020017f424242000000000000000000000000000000000000000000000000000000000081525081526020016040518060400160405280600381526020017f434343000000000000000000000000000000000000000000000000000000000081525081526020016040518060400160405280600381526020017f444444000000000000000000000000000000000000000000000000000000000081525081526020016040518060400160405280600381526020017f454545000000000000000000000000000000000000000000000000000000000081525081526020016040518060400160405280600381526020017f46464600000000000000000000000000000000000000000000000000000000008152508152506009906006620001af92919062000669565b506040518060c001604052806040518060400160405280600381526020017f616161000000000000000000000000000000000000000000000000000000000081525081526020016040518060400160405280600381526020017f626262000000000000000000000000000000000000000000000000000000000081525081526020016040518060400160405280600381526020017f636363000000000000000000000000000000000000000000000000000000000081525081526020016040518060400160405280600381526020017f646464000000000000000000000000000000000000000000000000000000000081525081526020016040518060400160405280600381526020017f656565000000000000000000000000000000000000000000000000000000000081525081526020016040518060400160405280600381526020017f6666660000000000000000000000000000000000000000000000000000000000815250815250600a9060066200032d92919062000669565b506040518060c001604052806040518060400160405280600381526020017f313131000000000000000000000000000000000000000000000000000000000081525081526020016040518060400160405280600381526020017f323232000000000000000000000000000000000000000000000000000000000081525081526020016040518060400160405280600381526020017f333333000000000000000000000000000000000000000000000000000000000081525081526020016040518060400160405280600381526020017f343434000000000000000000000000000000000000000000000000000000000081525081526020016040518060400160405280600381526020017f353535000000000000000000000000000000000000000000000000000000000081525081526020016040518060400160405280600381526020017f3636360000000000000000000000000000000000000000000000000000000000815250815250600b906006620004ab92919062000669565b50348015620004b957600080fd5b506040518060400160405280600981526020017f5371756172654e465400000000000000000000000000000000000000000000008152506040518060400160405280600681526020017f53515541524500000000000000000000000000000000000000000000000000008152508160009081620005379190620009d0565b508060019081620005499190620009d0565b505050620005976040518060400160405280601881526020017f54686973206973206d79204e465420636f6e74726163742e00000000000000008152506200059d60201b620011861760201c565b62000b6a565b6200063d81604051602401620005b4919062000b46565b6040516020818303038152906040527f41304fac000000000000000000000000000000000000000000000000000000007bffffffffffffffffffffffffffffffffffffffffffffffffffffffff19166020820180517bffffffffffffffffffffffffffffffffffffffffffffffffffffffff83818316178352505050506200064060201b60201c565b50565b60008151905060006a636f6e736f6c652e6c6f679050602083016000808483855afa5050505050565b828054828255906000526020600020908101928215620006b6579160200282015b82811115620006b5578251829081620006a49190620009d0565b50916020019190600101906200068a565b5b509050620006c59190620006c9565b5090565b5b80821115620006ed5760008181620006e39190620006f1565b50600101620006ca565b5090565b508054620006ff90620007bf565b6000825580601f1062000713575062000734565b601f01602090049060005260206000209081019062000733919062000737565b5b50565b5b808211156200075257600081600090555060010162000738565b5090565b600081519050919050565b7f4e487b7100000000000000000000000000000000000000000000000000000000600052604160045260246000fd5b7f4e487b7100000000000000000000000000000000000000000000000000000000600052602260045260246000fd5b60006002820490506001821680620007d857607f821691505b602082108103620007ee57620007ed62000790565b5b50919050565b60008190508160005260206000209050919050565b60006020601f8301049050919050565b600082821b905092915050565b600060088302620008587fffffffffffffffffffffffffffffffffffffffffffffffffffffffffffffffff8262000819565b62000864868362000819565b95508019841693508086168417925050509392505050565b6000819050919050565b6000819050919050565b6000620008b1620008ab620008a5846200087c565b62000886565b6200087c565b9050919050565b6000819050919050565b620008cd8362000890565b620008e5620008dc82620008b8565b84845462000826565b825550505050565b600090565b620008fc620008ed565b62000909818484620008c2565b505050565b5b81811015620009315762000925600082620008f2565b6001810190506200090f565b5050565b601f82111562000980576200094a81620007f4565b620009558462000809565b8101602085101562000965578190505b6200097d620009748562000809565b8301826200090e565b50505b505050565b600082821c905092915050565b6000620009a56000198460080262000985565b1980831691505092915050565b6000620009c0838362000992565b9150826002028217905092915050565b620009db8262000756565b67ffffffffffffffff811115620009f757620009f662000761565b5b62000a038254620007bf565b62000a1082828562000935565b600060209050601f83116001811462000a48576000841562000a33578287015190505b62000a3f8582620009b2565b86555062000aaf565b601f19841662000a5886620007f4565b60005b8281101562000a825784890151825560018201915060208501945060208101905062000a5b565b8683101562000aa2578489015162000a9e601f89168262000992565b8355505b6001600288020188555050505b505050505050565b600082825260208201905092915050565b60005b8381101562000ae857808201518184015260208101905062000acb565b60008484015250505050565b6000601f19601f8301169050919050565b600062000b128262000756565b62000b1e818562000ab7565b935062000b3081856020860162000ac8565b62000b3b8162000af4565b840191505092915050565b6000602082019050818103600083015262000b62818462000b05565b905092915050565b613bcb8062000b7a6000396000f3fe608060405234801561001057600080fd5b506004361061012c5760003560e01c80636352211e116100ad578063b88d4fde11610071578063b88d4fde14610357578063c575757a14610373578063c87b56dd146103a3578063de9d132f146103d3578063e985e9c5146103dd5761012c565b80636352211e1461028d57806370a08231146102bd57806395d89b41146102ed578063a22cb4651461030b578063b187301f146103275761012c565b806323b872dd116100f457806323b872dd146101e95780632de38d681461020557806332cb6b0c14610235578063355274ea1461025357806342842e0e146102715761012c565b806301ffc9a71461013157806306fdde0314610161578063081812fc1461017f578063095ea7b3146101af57806318160ddd146101cb575b600080fd5b61014b60048036038101906101469190612480565b61040d565b60405161015891906124c8565b60405180910390f35b6101696104ef565b6040516101769190612573565b60405180910390f35b610199600480360381019061019491906125cb565b610581565b6040516101a69190612639565b60405180910390f35b6101c960048036038101906101c49190612680565b6105c7565b005b6101d36106de565b6040516101e091906126cf565b60405180910390f35b61020360048036038101906101fe91906126ea565b6106ef565b005b61021f600480360381019061021a91906125cb565b61074f565b60405161022c9190612573565b60405180910390f35b61023d6108c5565b60405161024a91906126cf565b60405180910390f35b61025b6108ca565b60405161026891906126cf565b60405180910390f35b61028b600480360381019061028691906126ea565b6108d3565b005b6102a760048036038101906102a291906125cb565b6108f3565b6040516102b49190612639565b60405180910390f35b6102d760048036038101906102d2919061273d565b610979565b6040516102e491906126cf565b60405180910390f35b6102f5610a30565b6040516103029190612573565b60405180910390f35b61032560048036038101906103209190612796565b610ac2565b005b610341600480360381019061033c91906125cb565b610ad8565b60405161034e9190612573565b60405180910390f35b610371600480360381019061036c919061290b565b610bd0565b005b61038d600480360381019061038891906125cb565b610c32565b60405161039a9190612573565b60405180910390f35b6103bd60048036038101906103b891906125cb565b610d2a565b6040516103ca9190612573565b60405180910390f35b6103db610e3c565b005b6103f760048036038101906103f2919061298e565b6110f2565b60405161040491906124c8565b60405180910390f35b60007f80ac58cd000000000000000000000000000000000000000000000000000000007bffffffffffffffffffffffffffffffffffffffffffffffffffffffff1916827bffffffffffffffffffffffffffffffffffffffffffffffffffffffff191614806104d857507f5b5e139f000000000000000000000000000000000000000000000000000000007bffffffffffffffffffffffffffffffffffffffffffffffffffffffff1916827bffffffffffffffffffffffffffffffffffffffffffffffffffffffff1916145b806104e857506104e78261121f565b5b9050919050565b6060600080546104fe906129fd565b80601f016020809104026020016040519081016040528092919081815260200182805461052a906129fd565b80156105775780601f1061054c57610100808354040283529160200191610577565b820191906000526020600020905b81548152906001019060200180831161055a57829003601f168201915b5050505050905090565b600061058c82611289565b6004600083815260200190815260200160002060009054906101000a900473ffffffffffffffffffffffffffffffffffffffff169050919050565b60006105d2826108f3565b90508073ffffffffffffffffffffffffffffffffffffffff168373ffffffffffffffffffffffffffffffffffffffff1603610642576040517f08c379a000000000000000000000000000000000000000000000000000000000815260040161063990612aa0565b60405180910390fd5b8073ffffffffffffffffffffffffffffffffffffffff166106616112d4565b73ffffffffffffffffffffffffffffffffffffffff161480610690575061068f8161068a6112d4565b6110f2565b5b6106cf576040517f08c379a00000000000000000000000000000000000000000000000000000000081526004016106c690612b32565b60405180910390fd5b6106d983836112dc565b505050565b60006106ea6007611395565b905090565b6107006106fa6112d4565b826113a3565b61073f576040517f08c379a000000000000000000000000000000000000000000000000000000000815260040161073690612bc4565b60405180910390fd5b61074a838383611438565b505050565b6060600061078361075f84611731565b60405160200161076f9190612c6c565b6040516020818303038152906040526117ff565b90506107c46040518060400160405280600d81526020017f72616e64202d20736565643a200000000000000000000000000000000000000081525082611832565b600980549050816107d59190612cbd565b90506108166040518060400160405280601381526020017f72616e64202d20666972737420776f72643a200000000000000000000000000081525082611832565b6009818154811061082a57610829612cee565b5b90600052602060002001805461083f906129fd565b80601f016020809104026020016040519081016040528092919081815260200182805461086b906129fd565b80156108b85780601f1061088d576101008083540402835291602001916108b8565b820191906000526020600020905b81548152906001019060200180831161089b57829003601f168201915b5050505050915050919050565b600381565b60006003905090565b6108ee83838360405180602001604052806000815250610bd0565b505050565b6000806108ff836118ce565b9050600073ffffffffffffffffffffffffffffffffffffffff168173ffffffffffffffffffffffffffffffffffffffff1603610970576040517f08c379a000000000000000000000000000000000000000000000000000000000815260040161096790612d69565b60405180910390fd5b80915050919050565b60008073ffffffffffffffffffffffffffffffffffffffff168273ffffffffffffffffffffffffffffffffffffffff16036109e9576040517f08c379a00000000000000000000000000000000000000000000000000000000081526004016109e090612dfb565b60405180910390fd5b600360008373ffffffffffffffffffffffffffffffffffffffff1673ffffffffffffffffffffffffffffffffffffffff168152602001908152602001600020549050919050565b606060018054610a3f906129fd565b80601f0160208091040260200160405190810160405280929190818152602001828054610a6b906129fd565b8015610ab85780601f10610a8d57610100808354040283529160200191610ab8565b820191906000526020600020905b815481529060010190602001808311610a9b57829003601f168201915b5050505050905090565b610ad4610acd6112d4565b838361190b565b5050565b60606000610b0c610ae884611731565b604051602001610af89190612e67565b6040516020818303038152906040526117ff565b9050600a8054905081610b1f9190612cbd565b9050600a8181548110610b3557610b34612cee565b5b906000526020600020018054610b4a906129fd565b80601f0160208091040260200160405190810160405280929190818152602001828054610b76906129fd565b8015610bc35780601f10610b9857610100808354040283529160200191610bc3565b820191906000526020600020905b815481529060010190602001808311610ba657829003601f168201915b5050505050915050919050565b610be1610bdb6112d4565b836113a3565b610c20576040517f08c379a0000000000000000000000000000000000000000000000000000000008152600401610c1790612bc4565b60405180910390fd5b610c2c84848484611a77565b50505050565b60606000610c66610c4284611731565b604051602001610c529190612ed5565b6040516020818303038152906040526117ff565b9050600b8054905081610c799190612cbd565b9050600b8181548110610c8f57610c8e612cee565b5b906000526020600020018054610ca4906129fd565b80601f0160208091040260200160405190810160405280929190818152602001828054610cd0906129fd565b8015610d1d5780601f10610cf257610100808354040283529160200191610d1d565b820191906000526020600020905b815481529060010190602001808311610d0057829003601f168201915b5050505050915050919050565b6060610d3582611289565b6000600660008481526020019081526020016000208054610d55906129fd565b80601f0160208091040260200160405190810160405280929190818152602001828054610d81906129fd565b8015610dce5780601f10610da357610100808354040283529160200191610dce565b820191906000526020600020905b815481529060010190602001808311610db157829003601f168201915b505050505090506000610ddf611ad3565b90506000815103610df4578192505050610e37565b600082511115610e29578082604051602001610e11929190612ef7565b60405160208183030381529060405292505050610e37565b610e3284611aea565b925050505b919050565b610e466007611b52565b6000610e526007611395565b9050610e5c6108ca565b811115610e9e576040517f08c379a0000000000000000000000000000000000000000000000000000000008152600401610e9590612f67565b60405180910390fd5b6000610ea98261074f565b90506000610eb683610ad8565b90506000610ec384610c32565b90506000838383604051602001610edc93929190612f87565b60405160208183030381529060405290506000600882604051602001610f0392919061309c565b6040516020818303038152906040529050610f526040518060400160405280601581526020017f0a2d2d2d2d2d2d2d2d2d2d2d2d2d2d2d2d2d2d2d2d0000000000000000000000815250611186565b610f5b81611186565b610f996040518060400160405280601581526020017f2d2d2d2d2d2d2d2d2d2d2d2d2d2d2d2d2d2d2d2d0a0000000000000000000000815250611186565b6000610fcd83610fa884611b68565b604051602001610fb9929190613221565b604051602081830303815290604052611b68565b9050600081604051602001610fe291906132b2565b60405160208183030381529060405290506110316040518060400160405280601581526020017f0a2d2d2d2d2d20546f6b656e20555249202d2d2d2d0000000000000000000000815250611186565b61103a81611186565b6110786040518060400160405280601581526020017f2d2d2d2d2d2d2d2d2d2d2d2d2d2d2d2d2d2d2d2d0a0000000000000000000000815250611186565b6110823389611cff565b61108c8882611d1d565b6110af604051806060016040528060258152602001613b31602591398933611d8a565b7febb98688741ffa4c7589bf325de30cf7becb63de567842e1ccdb6cb949fdc82c33896040516110e09291906132d4565b60405180910390a15050505050505050565b6000600560008473ffffffffffffffffffffffffffffffffffffffff1673ffffffffffffffffffffffffffffffffffffffff16815260200190815260200160002060008373ffffffffffffffffffffffffffffffffffffffff1673ffffffffffffffffffffffffffffffffffffffff16815260200190815260200160002060009054906101000a900460ff16905092915050565b61121c8160405160240161119a9190612573565b6040516020818303038152906040527f41304fac000000000000000000000000000000000000000000000000000000007bffffffffffffffffffffffffffffffffffffffffffffffffffffffff19166020820180517bffffffffffffffffffffffffffffffffffffffffffffffffffffffff8381831617835250505050611e29565b50565b60007f01ffc9a7000000000000000000000000000000000000000000000000000000007bffffffffffffffffffffffffffffffffffffffffffffffffffffffff1916827bffffffffffffffffffffffffffffffffffffffffffffffffffffffff1916149050919050565b61129281611e52565b6112d1576040517f08c379a00000000000000000000000000000000000000000000000000000000081526004016112c890612d69565b60405180910390fd5b50565b600033905090565b816004600083815260200190815260200160002060006101000a81548173ffffffffffffffffffffffffffffffffffffffff021916908373ffffffffffffffffffffffffffffffffffffffff160217905550808273ffffffffffffffffffffffffffffffffffffffff1661134f836108f3565b73ffffffffffffffffffffffffffffffffffffffff167f8c5be1e5ebec7d5bd14f71427d1e84f3dd0314c0f7b2291e5b200ac8c7c3b92560405160405180910390a45050565b600081600001549050919050565b6000806113af836108f3565b90508073ffffffffffffffffffffffffffffffffffffffff168473ffffffffffffffffffffffffffffffffffffffff1614806113f157506113f081856110f2565b5b8061142f57508373ffffffffffffffffffffffffffffffffffffffff1661141784610581565b73ffffffffffffffffffffffffffffffffffffffff16145b91505092915050565b8273ffffffffffffffffffffffffffffffffffffffff16611458826108f3565b73ffffffffffffffffffffffffffffffffffffffff16146114ae576040517f08c379a00000000000000000000000000000000000000000000000000000000081526004016114a59061336f565b60405180910390fd5b600073ffffffffffffffffffffffffffffffffffffffff168273ffffffffffffffffffffffffffffffffffffffff160361151d576040517f08c379a000000000000000000000000000000000000000000000000000000000815260040161151490613401565b60405180910390fd5b61152a8383836001611e93565b8273ffffffffffffffffffffffffffffffffffffffff1661154a826108f3565b73ffffffffffffffffffffffffffffffffffffffff16146115a0576040517f08c379a00000000000000000000000000000000000000000000000000000000081526004016115979061336f565b60405180910390fd5b6004600082815260200190815260200160002060006101000a81549073ffffffffffffffffffffffffffffffffffffffff02191690556001600360008573ffffffffffffffffffffffffffffffffffffffff1673ffffffffffffffffffffffffffffffffffffffff168152602001908152602001600020600082825403925050819055506001600360008473ffffffffffffffffffffffffffffffffffffffff1673ffffffffffffffffffffffffffffffffffffffff16815260200190815260200160002060008282540192505081905550816002600083815260200190815260200160002060006101000a81548173ffffffffffffffffffffffffffffffffffffffff021916908373ffffffffffffffffffffffffffffffffffffffff160217905550808273ffffffffffffffffffffffffffffffffffffffff168473ffffffffffffffffffffffffffffffffffffffff167fddf252ad1be2c89b69c2b068fc378daa952ba7f163c4a11628f55a4df523b3ef60405160405180910390a461172c8383836001611e99565b505050565b60606000600161174084611e9f565b01905060008167ffffffffffffffff81111561175f5761175e6127e0565b5b6040519080825280601f01601f1916602001820160405280156117915781602001600182028036833780820191505090505b509050600082602001820190505b6001156117f4578080600190039150507f3031323334353637383961626364656600000000000000000000000000000000600a86061a8153600a85816117e8576117e7612c8e565b5b0494506000850361179f575b819350505050919050565b6000816040516020016118129190613421565b6040516020818303038152906040528051906020012060001c9050919050565b6118ca8282604051602401611848929190613438565b6040516020818303038152906040527fb60e72cc000000000000000000000000000000000000000000000000000000007bffffffffffffffffffffffffffffffffffffffffffffffffffffffff19166020820180517bffffffffffffffffffffffffffffffffffffffffffffffffffffffff8381831617835250505050611e29565b5050565b60006002600083815260200190815260200160002060009054906101000a900473ffffffffffffffffffffffffffffffffffffffff169050919050565b8173ffffffffffffffffffffffffffffffffffffffff168373ffffffffffffffffffffffffffffffffffffffff1603611979576040517f08c379a0000000000000000000000000000000000000000000000000000000008152600401611970906134b4565b60405180910390fd5b80600560008573ffffffffffffffffffffffffffffffffffffffff1673ffffffffffffffffffffffffffffffffffffffff16815260200190815260200160002060008473ffffffffffffffffffffffffffffffffffffffff1673ffffffffffffffffffffffffffffffffffffffff16815260200190815260200160002060006101000a81548160ff0219169083151502179055508173ffffffffffffffffffffffffffffffffffffffff168373ffffffffffffffffffffffffffffffffffffffff167f17307eab39ab6107e8899845ad3d59bd9653f200f220920489ca2b5937696c3183604051611a6a91906124c8565b60405180910390a3505050565b611a82848484611438565b611a8e84848484611ff2565b611acd576040517f08c379a0000000000000000000000000000000000000000000000000000000008152600401611ac490613546565b60405180910390fd5b50505050565b606060405180602001604052806000815250905090565b6060611af582611289565b6000611aff611ad3565b90506000815111611b1f5760405180602001604052806000815250611b4a565b80611b2984611731565b604051602001611b3a929190612ef7565b6040516020818303038152906040525b915050919050565b6001816000016000828254019250508190555050565b606060008251905060008103611b905760405180602001604052806000815250915050611cfa565b60006003600283611ba19190613595565b611bab91906135c9565b6004611bb791906135fa565b90506000602082611bc89190613595565b67ffffffffffffffff811115611be157611be06127e0565b5b6040519080825280601f01601f191660200182016040528015611c135781602001600182028036833780820191505090505b5090506000604051806060016040528060408152602001613b56604091399050600181016020830160005b86811015611cb75760038101905062ffffff818a015116603f8160121c168401518060081b905060ff603f83600c1c1686015116810190508060081b905060ff603f8360061c1686015116810190508060081b905060ff603f831686015116810190508060e01b90508084526004840193505050611c3e565b506003860660018114611cd15760028114611ce157611cec565b613d3d60f01b6002830352611cec565b603d60f81b60018303525b508484525050819450505050505b919050565b611d19828260405180602001604052806000815250612179565b5050565b611d2682611e52565b611d65576040517f08c379a0000000000000000000000000000000000000000000000000000000008152600401611d5c906136ae565b60405180910390fd5b80600660008481526020019081526020016000209081611d859190613865565b505050565b611e24838383604051602401611da293929190613937565b6040516020818303038152906040527f1c7ec448000000000000000000000000000000000000000000000000000000007bffffffffffffffffffffffffffffffffffffffffffffffffffffffff19166020820180517bffffffffffffffffffffffffffffffffffffffffffffffffffffffff8381831617835250505050611e29565b505050565b60008151905060006a636f6e736f6c652e6c6f679050602083016000808483855afa5050505050565b60008073ffffffffffffffffffffffffffffffffffffffff16611e74836118ce565b73ffffffffffffffffffffffffffffffffffffffff1614159050919050565b50505050565b50505050565b600080600090507a184f03e93ff9f4daa797ed6e38ed64bf6a1f0100000000000000008310611efd577a184f03e93ff9f4daa797ed6e38ed64bf6a1f0100000000000000008381611ef357611ef2612c8e565b5b0492506040810190505b6d04ee2d6d415b85acef81000000008310611f3a576d04ee2d6d415b85acef81000000008381611f3057611f2f612c8e565b5b0492506020810190505b662386f26fc100008310611f6957662386f26fc100008381611f5f57611f5e612c8e565b5b0492506010810190505b6305f5e1008310611f92576305f5e1008381611f8857611f87612c8e565b5b0492506008810190505b6127108310611fb7576127108381611fad57611fac612c8e565b5b0492506004810190505b60648310611fda5760648381611fd057611fcf612c8e565b5b0492506002810190505b600a8310611fe9576001810190505b80915050919050565b60006120138473ffffffffffffffffffffffffffffffffffffffff166121d4565b1561216c578373ffffffffffffffffffffffffffffffffffffffff1663150b7a0261203c6112d4565b8786866040518563ffffffff1660e01b815260040161205e94939291906139ca565b6020604051808303816000875af192505050801561209a57506040513d601f19601f820116820180604052508101906120979190613a2b565b60015b61211c573d80600081146120ca576040519150601f19603f3d011682016040523d82523d6000602084013e6120cf565b606091505b506000815103612114576040517f08c379a000000000000000000000000000000000000000000000000000000000815260040161210b90613546565b60405180910390fd5b805181602001fd5b63150b7a0260e01b7bffffffffffffffffffffffffffffffffffffffffffffffffffffffff1916817bffffffffffffffffffffffffffffffffffffffffffffffffffffffff191614915050612171565b600190505b949350505050565b61218383836121f7565b6121906000848484611ff2565b6121cf576040517f08c379a00000000000000000000000000000000000000000000000000000000081526004016121c690613546565b60405180910390fd5b505050565b6000808273ffffffffffffffffffffffffffffffffffffffff163b119050919050565b600073ffffffffffffffffffffffffffffffffffffffff168273ffffffffffffffffffffffffffffffffffffffff1603612266576040517f08c379a000000000000000000000000000000000000000000000000000000000815260040161225d90613aa4565b60405180910390fd5b61226f81611e52565b156122af576040517f08c379a00000000000000000000000000000000000000000000000000000000081526004016122a690613b10565b60405180910390fd5b6122bd600083836001611e93565b6122c681611e52565b15612306576040517f08c379a00000000000000000000000000000000000000000000000000000000081526004016122fd90613b10565b60405180910390fd5b6001600360008473ffffffffffffffffffffffffffffffffffffffff1673ffffffffffffffffffffffffffffffffffffffff16815260200190815260200160002060008282540192505081905550816002600083815260200190815260200160002060006101000a81548173ffffffffffffffffffffffffffffffffffffffff021916908373ffffffffffffffffffffffffffffffffffffffff160217905550808273ffffffffffffffffffffffffffffffffffffffff16600073ffffffffffffffffffffffffffffffffffffffff167fddf252ad1be2c89b69c2b068fc378daa952ba7f163c4a11628f55a4df523b3ef60405160405180910390a4612410600083836001611e99565b5050565b6000604051905090565b600080fd5b600080fd5b60007fffffffff0000000000000000000000000000000000000000000000000000000082169050919050565b61245d81612428565b811461246857600080fd5b50565b60008135905061247a81612454565b92915050565b6000602082840312156124965761249561241e565b5b60006124a48482850161246b565b91505092915050565b60008115159050919050565b6124c2816124ad565b82525050565b60006020820190506124dd60008301846124b9565b92915050565b600081519050919050565b600082825260208201905092915050565b60005b8381101561251d578082015181840152602081019050612502565b60008484015250505050565b6000601f19601f8301169050919050565b6000612545826124e3565b61254f81856124ee565b935061255f8185602086016124ff565b61256881612529565b840191505092915050565b6000602082019050818103600083015261258d818461253a565b905092915050565b6000819050919050565b6125a881612595565b81146125b357600080fd5b50565b6000813590506125c58161259f565b92915050565b6000602082840312156125e1576125e061241e565b5b60006125ef848285016125b6565b91505092915050565b600073ffffffffffffffffffffffffffffffffffffffff82169050919050565b6000612623826125f8565b9050919050565b61263381612618565b82525050565b600060208201905061264e600083018461262a565b92915050565b61265d81612618565b811461266857600080fd5b50565b60008135905061267a81612654565b92915050565b600080604083850312156126975761269661241e565b5b60006126a58582860161266b565b92505060206126b6858286016125b6565b9150509250929050565b6126c981612595565b82525050565b60006020820190506126e460008301846126c0565b92915050565b6000806000606084860312156127035761270261241e565b5b60006127118682870161266b565b93505060206127228682870161266b565b9250506040612733868287016125b6565b9150509250925092565b6000602082840312156127535761275261241e565b5b60006127618482850161266b565b91505092915050565b612773816124ad565b811461277e57600080fd5b50565b6000813590506127908161276a565b92915050565b600080604083850312156127ad576127ac61241e565b5b60006127bb8582860161266b565b92505060206127cc85828601612781565b9150509250929050565b600080fd5b600080fd5b7f4e487b7100000000000000000000000000000000000000000000000000000000600052604160045260246000fd5b61281882612529565b810181811067ffffffffffffffff82111715612837576128366127e0565b5b80604052505050565b600061284a612414565b9050612856828261280f565b919050565b600067ffffffffffffffff821115612876576128756127e0565b5b61287f82612529565b9050602081019050919050565b82818337600083830152505050565b60006128ae6128a98461285b565b612840565b9050828152602081018484840111156128ca576128c96127db565b5b6128d584828561288c565b509392505050565b600082601f8301126128f2576128f16127d6565b5b813561290284826020860161289b565b91505092915050565b600080600080608085870312156129255761292461241e565b5b60006129338782880161266b565b94505060206129448782880161266b565b9350506040612955878288016125b6565b925050606085013567ffffffffffffffff81111561297657612975612423565b5b612982878288016128dd565b91505092959194509250565b600080604083850312156129a5576129a461241e565b5b60006129b38582860161266b565b92505060206129c48582860161266b565b9150509250929050565b7f4e487b7100000000000000000000000000000000000000000000000000000000600052602260045260246000fd5b60006002820490506001821680612a1557607f821691505b602082108103612a2857612a276129ce565b5b50919050565b7f4552433732313a20617070726f76616c20746f2063757272656e74206f776e6560008201527f7200000000000000000000000000000000000000000000000000000000000000602082015250565b6000612a8a6021836124ee565b9150612a9582612a2e565b604082019050919050565b60006020820190508181036000830152612ab981612a7d565b9050919050565b7f4552433732313a20617070726f76652063616c6c6572206973206e6f7420746f60008201527f6b656e206f776e6572206f7220617070726f76656420666f7220616c6c000000602082015250565b6000612b1c603d836124ee565b9150612b2782612ac0565b604082019050919050565b60006020820190508181036000830152612b4b81612b0f565b9050919050565b7f4552433732313a2063616c6c6572206973206e6f7420746f6b656e206f776e6560008201527f72206f7220617070726f76656400000000000000000000000000000000000000602082015250565b6000612bae602d836124ee565b9150612bb982612b52565b604082019050919050565b60006020820190508181036000830152612bdd81612ba1565b9050919050565b600081905092915050565b7f46495253545f574f524400000000000000000000000000000000000000000000600082015250565b6000612c25600a83612be4565b9150612c3082612bef565b600a82019050919050565b6000612c46826124e3565b612c508185612be4565b9350612c608185602086016124ff565b80840191505092915050565b6000612c7782612c18565b9150612c838284612c3b565b915081905092915050565b7f4e487b7100000000000000000000000000000000000000000000000000000000600052601260045260246000fd5b6000612cc882612595565b9150612cd383612595565b925082612ce357612ce2612c8e565b5b828206905092915050565b7f4e487b7100000000000000000000000000000000000000000000000000000000600052603260045260246000fd5b7f4552433732313a20696e76616c696420746f6b656e2049440000000000000000600082015250565b6000612d536018836124ee565b9150612d5e82612d1d565b602082019050919050565b60006020820190508181036000830152612d8281612d46565b9050919050565b7f4552433732313a2061646472657373207a65726f206973206e6f74206120766160008201527f6c6964206f776e65720000000000000000000000000000000000000000000000602082015250565b6000612de56029836124ee565b9150612df082612d89565b604082019050919050565b60006020820190508181036000830152612e1481612dd8565b9050919050565b7f5345434f4e445f574f5244000000000000000000000000000000000000000000600082015250565b6000612e51600b83612be4565b9150612e5c82612e1b565b600b82019050919050565b6000612e7282612e44565b9150612e7e8284612c3b565b915081905092915050565b7f54484952445f574f524400000000000000000000000000000000000000000000600082015250565b6000612ebf600a83612be4565b9150612eca82612e89565b600a82019050919050565b6000612ee082612eb2565b9150612eec8284612c3b565b915081905092915050565b6000612f038285612c3b565b9150612f0f8284612c3b565b91508190509392505050565b7f4e6f7420656e6f756768204e4654732100000000000000000000000000000000600082015250565b6000612f516010836124ee565b9150612f5c82612f1b565b602082019050919050565b60006020820190508181036000830152612f8081612f44565b9050919050565b6000612f938286612c3b565b9150612f9f8285612c3b565b9150612fab8284612c3b565b9150819050949350505050565b60008190508160005260206000209050919050565b60008154612fda816129fd565b612fe48186612be4565b94506001821660008114612fff576001811461301457613047565b60ff1983168652811515820286019350613047565b61301d85612fb8565b60005b8381101561303f57815481890152600182019150602081019050613020565b838801955050505b50505092915050565b7f3c2f746578743e3c2f7376673e00000000000000000000000000000000000000600082015250565b6000613086600d83612be4565b915061309182613050565b600d82019050919050565b60006130a88285612fcd565b91506130b48284612c3b565b91506130bf82613079565b91508190509392505050565b7f7b226e616d65223a202200000000000000000000000000000000000000000000600082015250565b6000613101600a83612be4565b915061310c826130cb565b600a82019050919050565b7f222c20226465736372697074696f6e223a20224120686967686c79206163636c60008201527f61696d656420636f6c6c656374696f6e206f6620737175617265732e222c202260208201527f696d616765223a2022646174613a696d6167652f7376672b786d6c3b6261736560408201527f36342c0000000000000000000000000000000000000000000000000000000000606082015250565b60006131bf606383612be4565b91506131ca82613117565b606382019050919050565b7f227d000000000000000000000000000000000000000000000000000000000000600082015250565b600061320b600283612be4565b9150613216826131d5565b600282019050919050565b600061322c826130f4565b91506132388285612c3b565b9150613243826131b2565b915061324f8284612c3b565b915061325a826131fe565b91508190509392505050565b7f646174613a6170706c69636174696f6e2f6a736f6e3b6261736536342c000000600082015250565b600061329c601d83612be4565b91506132a782613266565b601d82019050919050565b60006132bd8261328f565b91506132c98284612c3b565b915081905092915050565b60006040820190506132e9600083018561262a565b6132f660208301846126c0565b9392505050565b7f4552433732313a207472616e736665722066726f6d20696e636f72726563742060008201527f6f776e6572000000000000000000000000000000000000000000000000000000602082015250565b60006133596025836124ee565b9150613364826132fd565b604082019050919050565b600060208201905081810360008301526133888161334c565b9050919050565b7f4552433732313a207472616e7366657220746f20746865207a65726f2061646460008201527f7265737300000000000000000000000000000000000000000000000000000000602082015250565b60006133eb6024836124ee565b91506133f68261338f565b604082019050919050565b6000602082019050818103600083015261341a816133de565b9050919050565b600061342d8284612c3b565b915081905092915050565b60006040820190508181036000830152613452818561253a565b905061346160208301846126c0565b9392505050565b7f4552433732313a20617070726f766520746f2063616c6c657200000000000000600082015250565b600061349e6019836124ee565b91506134a982613468565b602082019050919050565b600060208201905081810360008301526134cd81613491565b9050919050565b7f4552433732313a207472616e7366657220746f206e6f6e20455243373231526560008201527f63656976657220696d706c656d656e7465720000000000000000000000000000602082015250565b60006135306032836124ee565b915061353b826134d4565b604082019050919050565b6000602082019050818103600083015261355f81613523565b9050919050565b7f4e487b7100000000000000000000000000000000000000000000000000000000600052601160045260246000fd5b60006135a082612595565b91506135ab83612595565b92508282019050808211156135c3576135c2613566565b5b92915050565b60006135d482612595565b91506135df83612595565b9250826135ef576135ee612c8e565b5b828204905092915050565b600061360582612595565b915061361083612595565b925082820261361e81612595565b9150828204841483151761363557613634613566565b5b5092915050565b7f45524337323155524953746f726167653a2055524920736574206f66206e6f6e60008201527f6578697374656e7420746f6b656e000000000000000000000000000000000000602082015250565b6000613698602e836124ee565b91506136a38261363c565b604082019050919050565b600060208201905081810360008301526136c78161368b565b9050919050565b60006020601f8301049050919050565b600082821b905092915050565b60006008830261371b7fffffffffffffffffffffffffffffffffffffffffffffffffffffffffffffffff826136de565b61372586836136de565b95508019841693508086168417925050509392505050565b6000819050919050565b600061376261375d61375884612595565b61373d565b612595565b9050919050565b6000819050919050565b61377c83613747565b61379061378882613769565b8484546136eb565b825550505050565b600090565b6137a5613798565b6137b0818484613773565b505050565b5b818110156137d4576137c960008261379d565b6001810190506137b6565b5050565b601f821115613819576137ea81612fb8565b6137f3846136ce565b81016020851015613802578190505b61381661380e856136ce565b8301826137b5565b50505b505050565b600082821c905092915050565b600061383c6000198460080261381e565b1980831691505092915050565b6000613855838361382b565b9150826002028217905092915050565b61386e826124e3565b67ffffffffffffffff811115613887576138866127e0565b5b61389182546129fd565b61389c8282856137d8565b600060209050601f8311600181146138cf57600084156138bd578287015190505b6138c78582613849565b86555061392f565b601f1984166138dd86612fb8565b60005b82811015613905578489015182556001820191506020850194506020810190506138e0565b86831015613922578489015161391e601f89168261382b565b8355505b6001600288020188555050505b505050505050565b60006060820190508181036000830152613951818661253a565b905061396060208301856126c0565b61396d604083018461262a565b949350505050565b600081519050919050565b600082825260208201905092915050565b600061399c82613975565b6139a68185613980565b93506139b68185602086016124ff565b6139bf81612529565b840191505092915050565b60006080820190506139df600083018761262a565b6139ec602083018661262a565b6139f960408301856126c0565b8181036060830152613a0b8184613991565b905095945050505050565b600081519050613a2581612454565b92915050565b600060208284031215613a4157613a4061241e565b5b6000613a4f84828501613a16565b91505092915050565b7f4552433732313a206d696e7420746f20746865207a65726f2061646472657373600082015250565b6000613a8e6020836124ee565b9150613a9982613a58565b602082019050919050565b60006020820190508181036000830152613abd81613a81565b9050919050565b7f4552433732313a20746f6b656e20616c7265616479206d696e74656400000000600082015250565b6000613afa601c836124ee565b9150613b0582613ac4565b602082019050919050565b60006020820190508181036000830152613b2981613aed565b905091905056fe416e204e465420772f20494420257320686173206265656e206d696e74656420746f2025734142434445464748494a4b4c4d4e4f505152535455565758595a6162636465666768696a6b6c6d6e6f707172737475767778797a303132333435363738392b2fa264697066735822122052b2f000e921a5ff715f27cf6c1175f3bc031ada5f26c7a274142578ed9ca38064736f6c634300081200333c73766720786d6c6e733d27687474703a2f2f7777772e77332e6f72672f323030302f73766727207072657365727665417370656374526174696f3d27784d696e594d696e206d656574272076696577426f783d273020302033353020333530273e3c7374796c653e2e62617365207b2066696c6c3a2077686974653b20666f6e742d66616d696c793a2073657269663b20666f6e742d73697a653a20323470783b207d3c2f7374796c653e3c726563742077696474683d273130302527206865696768743d2731303025272066696c6c3d27626c61636b27202f3e3c7465787420783d273530252720793d273530252720636c6173733d27626173652720646f6d696e616e742d626173656c696e653d276d6964646c652720746578742d616e63686f723d276d6964646c65273e",
  "linkReferences": {},
  "deployedLinkReferences": {}
}